:020000040000fa
:080000000001040000000000f3
:020000040000fa
:10000800dc010000ac010000b2010000b8010000f2
:10001800be010000dc010000dc010000dc01000082
:10002800dc010000dc010000dc010000dc01000054
:10003800dc010000dc010000dc010000dc01000044
:10004800dc010000dc010000dc010000dc01000034
:10005800dc010000dc010000dc010000dc01000024
:10006800dc010000dc010000dc010000dc01000014
:10007800dc010000dc010000dc010000dc01000004
:1000880098140000d0140000dc010000dc0100001e
:10009800dc010000dc010000dc010000dc010000e4
:1000a800dc010000dc010000dc010000dc010000d4
:1000b800420b0000dc010000dc010000dc01000054
:1000c800dc010000dc010000dc010000dc010000b4
:1000d800dc010000dc010000dc010000dc010000a4
:1000e800dc010000dc010000dc010000dc01000094
:0800f800dc010000dc01000046
:020000040000fa
:10010800dc010000c4010000ca010000d0010000a9
:10011800d6010000dc010000dc010000dc01000069
:10012800dc010000dc010000dc010000dc01000053
:10013800dc010000dc010000dc010000dc01000043
:10014800dc010000dc010000dc010000dc01000033
:10015800dc010000dc010000dc010000dc01000023
:10016800dc010000dc010000dc010000dc01000013
:10017800dc010000dc010000dc010000dc01000003
:1001880098140000d0140000dc010000dc0100001d
:10019800dc010000dc010000dc010000dc010000e3
:1001a800dc010000dc010000dc010000dc010000d3
:1001b800420b0000dc010000dc010000dc01000053
:1001c800dc010000dc010000dc010000dc010000b3
:1001d800dc010000dc010000dc010000dc010000a3
:1001e800dc010000dc010000dc010000dc01000093
:0801f800dc010000dc01000045
:020000040000fa
:100200000f8e20000e7f22000e01880000000000eb
:100210000c000700605d2100010020001f000700a6
:10022000000020000000e000020032000000020098
:1002300000000000fe040200000000000040da00a0
:100240000000fe004440a900800320000000e00000
:100250000300320000002000a00188004440a800f4
:1002600000000600f03fb1000180b100060035003b
:10027000ee03090000000000403fb1000180b10022
:10028000fbff3d001000b000203fb0000200350031
:1002900000800900000000000000060091018800b5
:1002a000800078000000eb0015003700e28040007d
:1002b00032a0b4009101ba00e280400032a0b40044
:1002c0009102ba00e280400032a0b4000002eb00cc
:1002d000472bde00f507b200602ce10004003a0075
:1002e0000059eb008301e900fdff3e0004003700e8
:1002f0006128e100010032000082eb0004000700e9
:100300001101ba000200e000e8ff3a000000060018
:100310003159ba008301e9000c0032002159ba00ba
:100320008301e900080032000400e00003003a0005
:10033000e280400032a0b400f5ff370011d9ba00c6
:100340008301e900faff3a008100e800e180400003
:1003500032a0b400000006000000fa008020a900ce
:10036000ffff37000000fa008060a900ffff3700a0
:100370000000fa008040a900ffff37000000fa00eb
:100380008080a900ffff37000000fa008020a9004c
:10039000ffff37000000fa008060a900ffff370070
:1003a0000000fa008040a900ffff37000000fa00bb
:1003b0008080a900ffff37000040da000000fe0047
:1003c0006011b800ef00370003f0a200889fbe0064
:1003d0008a9fbe008c1f780019010700200133009e
:1003e0006450e1004f0032006420e100520032000e
:1003f00003826c0007003b000905d0000306d00013
:10040000820f54000c065d00020039000200320029
:1004100089017800030678008582550004003d00bc
:100420000003fd008103fd008502ea008b85420088
:10043000840f720002003b0060001000e080180092
:100440006011b8000005eb007a28e1000a003900cd
:1004500006007800c75ddd00f707b20087807500f1
:100460002d003700828171000a017800610560006b
:100470008180d1000080d3008502e900f9ff3b00b4
:10048000060440008784480002003b00600414001a
:10049000e0841c000988a300070032008a817100f3
:1004a00082817100610164008904d1000884d30055
:1004b0008b05e800170037000978a30013003a0005
:1004c0000b00e000130034008b05e9000804440031
:1004d00089844c000a4474000978a3000d003a0096
:1004e0000b00e000070034008b05e900080444001d
:1004f00089844c0001003a000b0020000978a30019
:10050000f7ff32000001eb0002003700828171002a
:100510000a017800e20007000cf0a70001f0a0003b
:10052000d80037006420e10002003a00838f6c009d
:10053000d80033000801be000200be00d100370021
:10054000889fbe008a9fbe008c1f7800bc000700f9
:10055000c300330003866c006450e1002e003200bb
:100560006420e100330032006150e1002f003200ce
:100570006120e1003100320085855500eb07b000b5
:10058000090020000804200005003700080444008a
:1005900089844c000a0031000603430087834b0026
:1005a0000001530081815b00f8ff33000203be00ad
:1005b0000800a0000804440089844c00f6ff3900bc
:1005c000c639dd00830173000100320013002000f2
:1005d0008904d1000884d3000998a30005003200e3
:1005e0000800a7000300a0008904d1000884d300fc
:1005f0008b05e8008904d1000884d3000001eb00da
:100600000281d200a600070001f0a1000cf0a700b3
:1006100001f0a0009b0037006420e1009d00320043
:100620000801be000200be00f7ff37006120e100b4
:10063000980032006000b800f3ff3700000020008f
:1006400001f82700f0ff3700889fbe008a9fbe0098
:100650008c1f78007a0007008100330003866c004d
:100660006450e100240032006420e10027003200e1
:100670006150e100220032006120e10021003200df
:100680008b854200eb07b1000134b800003ab80096
:100690000804420089844a00013ab8000030b800da
:1006a0008880400009014a00040033000000400037
:1006b00081804800020149008b05e900c909dd007d
:1006c000830170000100320013002000c814de0016
:1006d0004814dd004709de001200b200c808de0041
:1006e000088470006e00070001f0a1000cf0a70064
:1006f00001f0a000630037006120e10065003200d6
:100700000801be000200be00f7ff37006150e100a3
:10071000fcff3a005f0037000001be0086000700c2
:100720000470a70003f0a10003f8a30013003a002f
:100730006509b10010003200090035006928e100a8
:100740000200350001002800000005000000400004
:10075000818048008502e900fcff3a0000000600a5
:10076000f88f4200050035008100d1000080d300e1
:100770008502e800fcff3a00000006008000eb0064
:1007800000000500889fbe008a9fbe0000827000a6
:100790000402710004827100260032000004be00d1
:1007a0000200be006011b8006b0920009502200015
:1007b0000182cf000a0039000541b1000082cf005c
:1007c000070039000541b1000982cf00040039005b
:1007d0000541b1000882cf00010039000541b10098
:1007e00005425200120032000a003b008281710073
:1007f000610164008100d1000080d3008984d300ae
:100800000884d3008b05e8000442e800f7ff3a00b3
:10081000070037000804440089844c0000004800a9
:10082000818048008b05e9000442e900f9ff3a00a5
:100830001b0007004f05be004f04be00000006006d
:100840000004be003c0007000003be000405be001b
:100850000200be0038000700844f7500000006004b
:100860000200be006450e100050036006420e10093
:10087000020036000968a30001003a000800be002b
:100880000160a0004f0678004f05be004f04be0077
:1008900000000600f0ff2f00f1ff2700f9ff3700ee
:1008a00081002000618055000b003d000b002000fe
:1008b00061fe2f000100e1001d0034008281710003
:1008c000610164008904d1000884d3000000e800bd
:1008d000faff3a007100200061006400030070001c
:1008e000020060000900320061044400e0844c0012
:1008f0000988a500050032008b05e8006808e100c2
:1009000002003a008904d1000884d300f20f2000cd
:100910000258e10005003d00c75ddd00f907b200a7
:100920008980750008007800000006000bf8270099
:100930008b00780000000500c70ade00f107b20056
:10094000f50fb20008003200e1cf42000200320091
:100950000170a00024000500810f7000010032002a
:100960000408050044000500810f700002003a00f1
:10097000140005008502e9000000400081c0480025
:0c098000fcff3b000170a00024000500fb
:020000040000fa
:10098c000f0000005f000000af000000ff0000003f
:10099c000400000003000000020000000100000041
:1009ac000c0000000b0000000a0000000900000011
:1009bc0012000000110000001600000015000000dd
:1009cc000800000007000000060000000500000001
:1009dc00100000000f0000000e0000000d000000d1
:1009ec0014000000130000001800000017000000a5
:020000040000fa
:1009fc000000fa000060fe007a0307000000eb0024
:100a0c00604688000000eb0020468800e7040700e1
:100a1c00c2e8b700c2c8bf006005070020468800c6
:100a2c00c0002000704688000040eb008ce8b70046
:100a3c00de000700101680004f00de00004078003a
:100a4c008de8b700030037000000000001003700fc
:100a5c00000000000060fe007d0207000060fe0048
:100a6c00350607000060fe0001178000000420001e
:100a7c0000806000e00f50000d00320018000700ed
:100a8c0030468800111680000000210000806000b4
:100a9c00e00f50000300320010c0b3008ce8b70028
:100aac00020037000040eb008ce8b700bf000700e5
:100abc0060468000e00f5000e3ff32000117800019
:100acc000008200000806000e00f5000e0ff3a00ba
:100adc00d6c2a8000000eb0060468800ddff37009e
:100aec000400fa000000eb0010079800d6a2a80042
:100afc00d6c2a90000000000000000000000eb00be
:100b0c00000f78001b003700d7e2a900000000009e
:100b1c0000362e0061012000cffd07000117800078
:100b2c000004200000806000e00f500002003a003a
:100b3c0010002000100798001e007800130007001a
:100b4c00d7e2a8000000000000362e006101200052
:100b5c00c1fd070001178000000420000080600028
:100b6c00e00f500002003200100020001007980027
:100b7c001e0fe8001e007800e20f5000e2ff360066
:100b8c001e0090000080fa00000006000400fa002d
:100b9c00881f78001007980080002000000f780054
:100bac000b0037001e0090004300dd001e004000cb
:100bbc00670450001e0078000b000700004078000e
:100bcc00f188200081004400804878001e0fe80066
:100bdc001e007800ef0f5000f2ff36004f04780033
:100bec000080fa00000006000400fa0010079800cc
:100bfc001e009000004078006f4060000080fb00f9
:100c0c006f0060003215800001ff2f008100610031
:100c1c000080700030158800a022a8000000eb00b6
:100c2c00000f7800060037000000000000000000f4
:100c3c000000000000000000000000001e0fe80093
:100c4c00f07022009e007800808f5000f6ff360076
:100c5c00a022a900000000000015800061006000c7
:100c6c00e00f5000fcff3200001480004400de0056
:100c7c000080fa00000006001400fa00889fbe00f5
:100c8c008a9fbe0050079800610798007207980071
:100c9c00030f9800140f98007e009000000f78004e
:100cac00ee0090005e009000808f50003a003600fd
:100cbc000e08900001002000befd07000004be00dd
:100ccc007e00900001002000bafd07000001be006c
:100cdc000800be00b9fd07000004be006e009000c5
:100cec0001002000b3fd07000005be005e0090006f
:100cfc0001002000affd07000001be000a00be008d
:100d0c00aefd07000001be000800be0009fe070092
:100d1c0010079800210798001e0890000100200081
:100d2c00a4fd07000004be005e009000010020003e
:100d3c00a0fd07000001be000800be009ffd0700db
:100d4c0030079800410798001e019000ae019000fa
:100d5c003e009000ce00900038fe0700300798004f
:100d6c00410798007e0090000100200091fd0700d3
:100d7c000001be003e009000ce00900090fd0700e8
:100d8c0030079800410798003e009000ce0090007c
:100d9c005efe0700000f78001e0078004f05be00b5
:100dac004f04be000080fa00000006004c00fa0060
:100dbc000e007800c000b000e14c28000b000900c8
:100dcc00311878000e0078004002b000614e280007
:100ddc000b00090031187800d6a2a8000000000012
:100dec00d6c2a900000000000000eb00000f780044
:100dfc003b0037008cc8bf00e14f50001c003a008c
:100e0c001e0078000000400000004700e000900049
:100e1c00f088200000804000104078008080fb00ab
:100e2c001e0078000000400000004700c003b00026
:100e3c00010878009e0078006480400000004000ab
:100e4c0000004700e0009000f08820000080400087
:100e5c00104078008080fb001e00780000004000ed
:100e6c00000047004004b000010878001b00370068
:100e7c001e0078000000400000004700a010900009
:100e8c00f088200000804000104078008080fb003b
:100e9c001e0078000000400000004700c003b000b6
:100eac00010878009e00780064804000000040003b
:100ebc0000004700a0109000f08820000080400047
:100ecc00104078008080fb001e007800000040007d
:100edc00000047004004b000010878001e0fe80035
:100eec001e007800e30f5000c2ff36000000eb003c
:100efc00000f780009003700614c28001e007800b4
:100f0c00000040000080400090007800e046800027
:100f1c00808f5000050031001e0fe8001e00780085
:100f2c00e30f5000f4ff3600010037000000000012
:100f3c001e007800e00f500007003a006e18900079
:100f4c0000407800b2e8b7002e20900000407800f6
:100f5c00b3e8b7003e0037001e007800e30f5000e6
:100f6c00070036001e20900000407800b2e8b70061
:100f7c005e20900000407800b3e8b70034003700e2
:100f8c00e44680001e00780000004000c1032000f1
:100f9c008e80400000804000900178001e00e90027
:100fac0000004000c10320008e8040000080400003
:100fbc0010017800614c28001e00780000004000f1
:100fcc0000804000900078001e00e900654c28006d
:100fdc0000004000008042001000780026ff07004f
:100fec0000407800b2e8b700e44680001e007800ac
:100ffc0000004000410420008e8040000080400032
:10100c00900178001e00e90000004000410420001f
:10101c008e8040000080400010017800614c280058
:10102c001e00780000004000008040009000780016
:10103c001e00e900654c28000000400000804200c2
:10104c00100078000cff070000407800b3e8b700f0
:10105c008cc8bf00e14f500005003a00b3c8bf0078
:10106c00b4e8b700b2c8bf00b6e8b7000400370058
:10107c00b3c8bf00b5e8b700b2c8bf00b7e8b70047
:10108c000000eb00000f7800900037001e00780085
:10109c00e00f500006003a00b3c8bf000080fb0010
:1010ac000100200020079800310798003d00370010
:1010bc001e007800e10f500006003a00b2c8bf00d5
:1010cc000080fb00010020002007980031079800e9
:1010dc00340037001e007800e20f500015003a0073
:1010ec008cc8bf00e14f500009003a00b4c8bf00e3
:1010fc0069405000b8e8b700b8c8bf000080fb00da
:10110c0001002000200798003107980025003700c7
:10111c00b5c8bf0069405000b9e8b700b9c8bf00f6
:10112c000080fb0001002000200798003107980088
:10113c001c0037008cc8bf00e14f50000d003a0076
:10114c009e007800668040000000400000004700d0
:10115c00e0009000f08820000080400010407800f3
:10116c000080fb0001002000200798003107980048
:10117c000c0037009e0078006680400000004000a4
:10118c0000004700a0109000f08820000080400074
:10119c00104078000080fb00010020002007980020
:1011ac00310798000000eb00100798002c00370066
:1011bc00e8c2a900000000002e019000be019000c2
:1011cc0000082000010020000202780003017800d2
:1011dc0080017800010078000302620000006100c9
:1011ec0001002000c000dd00000020000001be0056
:1011fc006120b800000171008181710042079800e4
:10120c00530798002e009000be0090000000400094
:10121c008180480020079800310798004e0190000b
:10122c00de0190000008200001002000800f51001a
:10123c00818f590003003a00e902a8000000000069
:10124c0002003700e902a90000000000e8c2a80073
:10125c00000000001e0090000000e800100798003d
:10126c001e009000e70f5000d1ff36001e007800e2
:10127c00e10f500005003a00d762a9000000000001
:10128c00d762a800000000000f0037001e00780095
:10129c00e30f500005003a00d782a90000000000bf
:1012ac00d782a80000000000070037001e0078005d
:1012bc00e50f500004003a00d7a2a900000000007e
:1012cc00d7a2a800000000001e0fe8001e00780046
:1012dc00e50f50006dff3600d6a2a90000000000fb
:1012ec00011780000008200000806000e00f500013
:1012fc0004003a00d6c2a8000000eb00604688004b
:10130c00020037001000200060468800000000003a
:10131c000080fa00000006000400fa00e14580009d
:10132c0080de2f00808f5000030036000000eb00a1
:10133c00e045880003003700e04580000000e8002d
:10134c00e0458800e8c2a90000000000d682a90090
:10135c00000000001000200001002000befb070070
:10136c00d682a80000000000100020000100200020
:10137c00b9fb0700301780004700de0061406000b9
:10138c000080fb00000f78000040eb002047980025
:10139c0012003700e8c2a800000000001e00780010
:1013ac0000004000000f7800301780004700de007e
:1013bc00614060000080fb001e0f7000e8c2a900b5
:1013cc00000000001000200001002000a2fb07001c
:1013dc002e4090000040e800204798002e409000de
:1013ec00e74f5000ebff3600d682a900000000004a
:1013fc00001020001e006000e00f500003003200bf
:10140c00f00f2000e046880003003700f00f2000aa
:10141c001e006000e0468800e046800080458800a1
:10142c00e046800064000700e0468800e14680004a
:10143c00400f2000808f500002003e00e042a900c7
:10144c0001003700e042a8000080fa00000006000e
:10145c000000fa00f04580000000e800f04588002c
:10146c00f145800000712200808f50002a00360068
:10147c000000eb00f0458800004680000000e8000a
:10148c000046880020468000e00f500003003a0020
:10149c0030468000e00f50001400320000468000ff
:1014ac00ea0f50001c00360041178000000021009c
:1014bc0000806000e00f500002003200e982a900b9
:1014cc0001003700e982a80020468000e00f5000a0
:1014dc0003003200c2c8bf00b002070020468800db
:1014ec000000eb00004688000b003700411780001d
:1014fc000000210000806000e00f5000020032006c
:10150c00e982a90001003700e982a8000000000070
:10151c000000eb0000468800a1168000004020006f
:10152c0000806000e00f500002003200e9c2a80009
:10153c0001003700e9c2a90040168000700060006d
:10154c00e00f500002003200e9a2a80001003700b1
:10155c00e9a2a9004017800068006000e00f50006d
:10156c000300320010002000a04688000200370063
:10157c000000eb00a0468800401780006800600067
:10158c00e00f500002003200e9e2a9000100370030
:10159c00e9e2a8008016800062006000e00f5000b5
:1015ac0002003200d402a80001003700d402a900c6
:1015bc000080fa00000006000400fa0010079800f2
:1015cc001e009000ea0f5000140036000000eb00e3
:1015dc00000f7800040037001e0090000000e900a6
:1015ec00100798001e0fe8009e0078001e01900066
:1015fc00b000200080017800811f780011000900e4
:10160c000381d8000001780001007800cf00780039
:10161c00808f5000f0ff3600020037000000eb0016
:10162c0010079800c04680009e009000808f5000ec
:10163c000c003200d04680000000e800d046880044
:10164c00d0468000ee0f500003003e00c0468000e4
:10165c0010079800050037009e019000c3468800d3
:10166c00020037000000eb00d04688001e009000fe
:10167c000080fa00000006003600f800809fbe00d3
:10168c00829fbe00849fbe00869fbe004400f8006f
:10169c004200f8000000fa000060fe000117800014
:1016ac000008200000806000e00f500003003a00aa
:1016bc0019ff070010000700040037000000eb00c2
:1016cc00e04688001000200060468800b7fd070047
:1016dc008880a9000080fa004200f9004400f9005b
:1016ec004f03be004f02be004f01be004f00be00b4
:1016fc003600f900004006000000fa004016800099
:10170c0068006000e00f50001d00320040168000a1
:10171c0064006000e00f50001900320011168000c8
:10172c000000210000806000e00f50000a00320031
:10173c0000000000d6e2a80000000000d662a8005d
:10174c0000000000d1c2a8000000000010c0b300cf
:10175c008ce8b7002100370000000000d6e2a90099
:10176c0000000000d662a80000000000d1c2a90051
:10177c00000000000040eb008ce8b70017003700b9
:10178c004016800064006000e00f50000a00320038
:10179c0000000000d6e2a80000000000d662a900fc
:1017ac0000000000d1c2a900000000000040eb00c6
:1017bc008ce8b7000900370000000000d6e2a80052
:1017cc0000000000d662a90000000000d1c2a800f1
:1017dc000000000010c0b3008ce8b7000080fa00d5
:1017ec00000006000200fa000e0007000000eb00eb
:1017fc00000f780003003700870007000060fe0030
:10180c001e0fe8001e007800ec0f5000faff3400a9
:10181c005000070097020700b40207000080fa008e
:10182c00000006000000fa00d682a900d6a2a8008b
:10183c00d6c2a900d282a900d2a2a900d2c2a90004
:10184c00e9a2a800e5a2a900e982a800e582a90006
:10185c00e9c2a800e5c2a900e9e2a800e5e2a900f6
:10186c00d022a800cc22a900d042a900cc42a900c9
:10187c00d062a900cc62a900cc82a800c6a2a800a4
:10188c00c682a800cda2a800d202a800d342a8000c
:10189c00d322a800d302a800c662a800c642a800a2
:1018ac00de62a800dec2a800dee2a800df02a8000b
:1018bc00de42a900d3e2a900d7e2a800d3c2a80057
:1018cc00c6c2a800dee2a800e842a900e442a800d3
:1018dc00e862a900e462a800d1c2a800cdc2a900a8
:1018ec00d2e2a900d6e2a800d622a900d222a900f1
:1018fc00d642a800d242a900d662a800d262a900a2
:10190c00d782a900d382a900d7a2a900d3a2a9008b
:10191c00d762a900d362a900e8c2a900e4c2a90059
:10192c00e902a900e502a900e4e2a800c182a8002e
:10193c00c1a2a800c1e2a800c1c2a800e422a9006b
:10194c00e622a900de82a800dea2a9000080fa002f
:10195c00000006000000fa00a1a2a80001158000fa
:10196c00f0cf2f000080600000158800011580006a
:10197c00f0f12f000080600000158800a042a90043
:10198c00a022a900a002a9000000eb0010158800fd
:10199c00a342a9001115800030fc2f0000806000cc
:1019ac0010158800a202a90021158000f00f2e004e
:1019bc00808060000070200000807000201588007e
:1019cc00a4e2a9002115800000fc2f00808060009b
:1019dc00a00220000080700020158800a682a900bb
:1019ec003115800000ff2f00008060000020a00057
:1019fc0030158800f00f2000401588000000eb0027
:101a0c00501588008560a9008d60a900a1e2a8008e
:101a1c000080fa00000006000400fa000080eb00d1
:101a2c0010079800e9c2a800e982a800e9a2a80062
:101a3c00e9e2a800d022a800010037001e0fe80040
:101a4c001e0090009e007800808f5000fbff3a0033
:101a5c00e9c2a900e982a800e9a2a800e9e2a8006d
:101a6c00d022a8000000eb00000f78000100370026
:101a7c001e0fe8001e0090009e007800808f500022
:101a8c00fbff3a00e9c2a800e982a900e9a2a8007c
:101a9c00e9e2a800d022a8000000eb00000f7800bb
:101aac00010037001e0fe8001e0090009e00780019
:101abc00808f5000fbff3a00e9c2a800e982a80021
:101acc00e9a2a900e9e2a800d022a8000000eb00de
:101adc00000f7800010037001e0fe8001e00900078
:101aec009e007800808f5000fbff3a00e9c2a800ee
:101afc00e982a800e9a2a800e9e2a900d022a80086
:101b0c000000eb00000f7800010037001e0fe8000a
:101b1c001e0090009e007800808f5000fbff3a0062
:101b2c00e9c2a800e982a800e9a2a800e9e2a8009d
:101b3c00d022a9000000eb00000f78000100370054
:101b4c001e0fe8001e0090009e007800808f500051
:101b5c00fbff3a00e9c2a800e982a800e9a2a800ac
:101b6c00e9e2a900d022a8000000eb00000f7800e9
:101b7c00010037001e0fe8001e0090009e00780048
:101b8c00808f5000fbff3a00e9c2a800e982a80050
:101b9c00e9a2a900e9e2a800d022a8000000eb000d
:101bac00000f7800010037001e0fe8001e009000a7
:101bbc009e007800808f5000fbff3a00e9c2a8001d
:101bcc00e982a900e9a2a800e9e2a800d022a800b5
:101bdc000000eb00000f7800010037001e0fe8003a
:101bec001e0090009e007800808f5000fbff3a0092
:101bfc00e9c2a900e982a800e9a2a800e9e2a800cc
:101c0c00d022a8000000eb00000f78000100370084
:101c1c001e0fe8001e0090009e007800808f500080
:101c2c00fbff3a00e9c2a800e982a800e9a2a800db
:101c3c00e9e2a800d022a8000000eb00000f780019
:101c4c00010037001e0fe8001e0090009e00780077
:101c5c00808f5000fbff3a00e9c2a900e982a9007d
:101c6c00e9a2a900e9e2a900d022a9000000eb003a
:101c7c00000f7800010037001e0fe8001e009000d6
:101c8c009e007800808f5000fbff3a00e9c2a8004c
:101c9c00e982a800e9a2a800e9e2a800d022a800e5
:101cac000000eb00000f7800010037001e0fe80069
:101cbc001e0090009e007800808f5000fbff3a00c1
:101ccc00e9c2a900e982a900e9a2a900e9e2a900f8
:101cdc00d022a9000000eb00000f780001003700b3
:101cec001e0fe8001e0090009e007800808f5000b0
:101cfc00fbff3a00e9c2a800e982a800e9a2a8000b
:101d0c00e9e2a800d022a8000000eb00000f780048
:101d1c00010037001e0fe8001e0090009e007800a6
:101d2c00808f5000fbff3a00e9c2a900e982a900ac
:101d3c00e9a2a900e9e2a900d022a9000000eb0069
:101d4c00000f7800010037001e0fe8001e00900005
:101d5c009e007800808f5000fbff3a00e9c2a8007b
:101d6c00e982a800e9a2a800e9e2a800d022a80014
:101d7c000000eb00000f7800010037001e0fe80098
:101d8c001e0090009e007800808f5000fbff3a00f0
:101d9c00e9c2a900e982a800e9a2a800e9e2a8002a
:101dac00d022a8000080fa00000006000600fa000d
:101dbc00d062a900d042a900100020000100200030
:101dcc0025f90700d042a8001000200001002000d7
:101ddc0021f90700701680004400de0061406000ad
:101dec000080fb00000f78000040eb0020479800bb
:101dfc0010003700d062a8001e00780000004000e0
:101e0c00000f7800701680004400de006140600016
:101e1c000080fb001e0f7000d062a9001000200093
:101e2c00010020000cf907002e4090000040e80053
:101e3c00204798002e409000e74f5000edff3600f1
:101e4c001e00780000407800614060003047980028
:101e5c001e007800004078007040600040479800f9
:101e6c004e4090000080fb004400de008040780073
:101e7c003e40900080cf5000020032000040eb004a
:101e8c00440037001e00780000407800624060007b
:101e9c00304798001e007800004078000042b200e5
:101eac00404798004e4090000080fb004400de004c
:101ebc00804078003e40900080cf500002003200fd
:101ecc000040eb00330037001e0078000040780023
:101edc0064406000304798001e0078000040780095
:101eec000044b200404798004e4090000080fb0038
:101efc004400de00804078003e40900080cf5000cf
:101f0c00020032000040eb00220037001e00780077
:101f1c000040780068406000304798001e00780050
:101f2c008040780000c8b30000c0600040479800b3
:101f3c004e4090000080fb004400de0080407800a2
:101f4c003e40900080cf5000020032000040eb0079
:101f5c00100037001e0078000040780068406000d8
:101f6c00304798001e007800004078006740600001
:101f7c0040479800be4090004e40900080cf5000eb
:101f8c00030032001e00780000407800010037008a
:101f9c000040eb000080fa00000006000400fa008c
:101fac00204798000000eb00000f7800c0e2a90069
:101fbc00c0c2a900e402a900ae40900070c7b300f3
:101fcc0080cf500007003a00e602a9000000000094
:101fdc00c2c2a90000000000c2e2a900000000007b
:101fec0027003700ae409000c0ccb30080cf50002b
:101ffc0007003a00e602a80000000000c2c2a800d8
:10200c0000000000c2e2a900000000001c00370024
:10201c00ae409000a0cab30080cf500007003a0039
:10202c00e602a80000000000c2c2a90000000000e7
:10203c00c2e2a8000000000011003700ae40900082
:10204c0090c9b30080cf500007003a00e602a90007
:10205c0000000000c2c2a80000000000c2e2a800fc
:10206c000000000006003700e602a8000000000097
:10207c00c2c2a80000000000c2e2a80000000000dc
:10208c00d7e2a9000000000000362e0061012000fc
:10209c0071f8070001178000000420000080600028
:1020ac00e00f500002003a0010002000000f7800f2
:1020bc00d7e2a8000000000000362e0061012000cd
:1020cc0065f8070001178000000420000080600004
:1020dc00e00f50000200320010002000000f7800ca
:1020ec00ae40900070c7b30080cf500007003a009c
:1020fc00e602a80000000000c2c2a8000000000018
:10210c00c2e2a8000000000027003700ae4090009b
:10211c00c0ccb30080cf500007003a00e602a90003
:10212c0000000000c2c2a90000000000c2e2a8002a
:10213c00000000001c003700ae409000a0cab300a5
:10214c0080cf500007003a00e602a9000000000012
:10215c00c2c2a80000000000c2e2a90000000000fa
:10216c0011003700ae40900090c9b30080cf5000f2
:10217c0007003a00e602a80000000000c2c2a90055
:10218c0000000000c2e2a9000000000006003700b9
:10219c00e602a80000000000c2c2a8000000000077
:1021ac00c2e2a80000000000d7e2a9000000000075
:1021bc0000362e006101200027f80700011780006f
:1021cc000004200000806000e00f500002003a0084
:1021dc0010002000000f7800d7e2a80000000000db
:1021ec0000362e00610120001bf80700011780004b
:1021fc000004200000806000e00f5000020032005c
:10220c0010002000000f7800c0e2a800c0c2a80097
:10221c00e402a8001e0078000080fa00000006000e
:10222c000000fa0081088000f0fc2f0000806000a4
:10223c00800888001021a8006051200060088800e8
:10224c000000eb003008880084c0a9008cc0a800f6
:10225c00b1048000f08f2f008080600000502000bf
:10226c0000807000b004880011e1a8000080fa0022
:10227c00000006000000fa0060802000e501070065
:10228c0080842000e3010700f0002000f01088009b
:10229c000000eb00b01088000040eb0004e8b70031
:1022ac008720a9008700a9008f20a80001058000c5
:1022bc00f0f82f00008060000040a00000058800ae
:1022cc008f00a8000105800080ff2f0000806000b7
:1022dc000000a0000005880017e2a80000402000c4
:1022ec00c01088000080fa00000006000000fa0010
:1022fc008880a9009080a8008260a800300580002a
:10230c007000b300300588000080fa000000060061
:10231c000000fa0088a0a90090a0a8008280a90063
:10232c003105800000072000008070003005880017
:10233c000080fa00000006000000fa00c1108000c6
:10234c000010200000806000e00f500001003200ff
:10235c00e622a90004c8bf00e24f50000100320081
:10236c000700070004c8bf00e24f500002003a000b
:10237c00e622a800910007000080fa000000060089
:10238c000400fa00881f78002f00370060802000be
:10239c00cf010700004f78001e407800ef4f40003f
:1023ac0029003a0060802000c9010700004f780026
:1023bc001e407800ee4f400023003a006080200061
:1023cc00c3010700004f78001e407800ed4f40001d
:1023dc001d003a0060802000bd01070000e8b70036
:1023ec0060802000ba01070002e8b700608020007e
:1023fc00b701070003e8b70060802000b4010700b4
:10240c0001e8b70060802000b10107000080fb00ec
:10241c00100798001e0090004804dd00608020002a
:10242c00ab0107000080fb0000004400100798007f
:10243c001e00900022010700e04f50000200320005
:10244c0020c0b30004e8b70004c8bf00e04f500040
:10245c0004003a0060802000ba010700e84f5000e9
:10246c00caff3e004f0478000080fa00000006000e
:10247c000000fa00dec8bf00e04f50000d00320033
:10248c00c11080000020200000806000e00f500090
:10249c0008003a0080842000b4010700e04f50008f
:1024ac000400320080842000890107000080fb00ba
:1024bc00d01088000080fa00000006000600fa0028
:1024cc00204798003147980022079800dec8bf00cb
:1024dc00e04f500037003a002e019000be409000b3
:1024ec002e409000e0000700000f780011cfb300e1
:1024fc00808420005101070021cfb300808420008c
:10250c004e01070041cfb300808420004b0107002f
:10251c00ae40900080842000480107002e009000ff
:10252c004800de0000407800804078008084200065
:10253c00420107002e009000004078008040780097
:10254c00808420003d010700be4090008084200064
:10255c003a0107001e0078004800de0000407800b9
:10256c008040780080842000340107001e00780031
:10257c000040780080407800808420002f01070004
:10258c00c11080000020200000806000e00f50008f
:10259c0008003a008084200074010700e04f5000ce
:1025ac000400320080842000490107000080fb00f9
:1025bc00d01088000080fa00000006000600fa0027
:1025cc0002c8bf000080fb00100798001e0090009e
:1025dc004800dd001007980003c8bf000080fb0016
:1025ec009e00900000804000100798001e00900094
:1025fc00000f780000c8bf000080fb002007980087
:10260c0000c8bf000080fb006101b90010fe2f0064
:10261c00f1ff2f00020040008380480022042000bc
:10262c0003002000820f5000838f580077003e007b
:10263c0000600100420037004400370046003700bc
:10264c00490037004c0037004f0037006f0037004f
:10265c006e0037006d0037006c0037006b003700e0
:10266c006a003700690037006800370067003700e0
:10267c0066003700650037004700370063003700fd
:10268c006200370061003700600037005f003700e0
:10269c005e0037005d0037005c0037005b003700e0
:1026ac005a003700590037005800370057003700e0
:1026bc0056003700550037003a0037003d00370010
:1026cc005200370051003700500037004f003700e0
:1026dc004e0037004d0037004c0037004b003700e0
:1026ec004a003700490037004800370047003700e0
:1026fc0046003700450037004400370043003700e0
:10270c004200370041003700400037003f003700df
:10271c003e0037003d0037003c0037003b003700df
:10272c003a003700390037003800370037003700df
:10273c003600370035003700220037002b003700f9
:10274c0080458000000f780032003700e0468000a2
:10275c00000f78002f003700b4c8bf000080fb00ca
:10276c00000f78002b003700b6c8bf000080fb00bc
:10277c00000f780027003700b5c8bf000080fb00b1
:10278c00000f780023003700b7c8bf000080fb00a3
:10279c00000f78001f003700e0458000000f780024
:1027ac001c003700b8c8bf000080fb00000f780089
:1027bc0018003700b9c8bf000080fb00000f78007c
:1027cc001400370001c8bf000081fb0003c8bf0024
:1027dc00f1882000810041008048780003c8bf00c8
:1027ec000080fb00000f78000a00370001c8bf0012
:1027fc008080fb00f08820000080400010407800b2
:10280c000080fb00000f78000200370070012000f0
:10281c00000f780011802000914078002e0090006d
:10282c00004078001e01780024ff07000040eb00f8
:10283c0004e8b7000080fa00000006000400fa006b
:10284c00100798001e009000e10f500003003a00a2
:10285c0050042000000f7800000000001e007800db
:10286c000080fa00000006000600fa0020479800dd
:10287c003147980022079800702d2000000f780037
:10288c002e4090008080fb003e4090000080fb00ba
:10289c00008040001e0f40002e0090004800de001b
:1028ac001e0f4000ae009000f00f20000080600072
:1028bc001e0f40001e0078000080fa000000060089
:1028cc000400fa0010079800602d2000000f78001b
:1028dc0000c8bf008080fb0001c8bf000080fb0067
:1028ec00008040001e0f400002c8bf008080fb002b
:1028fc0003c8bf000080fb00008040001e0f40009a
:10290c001e0090009e007800808f500002003a005c
:10291c0010c0b300010037000040eb000080fa004b
:10292c00000006003600f800809fbe00829fbe00ab
:10293c00849fbe00869fbe004400f8004200f80051
:10294c000000fa008700a90005003700e0108000a5
:10295c00004078008040780060802000370007003d
:10296c00c010800061006000e00f5000f7ff3a00db
:10297c000080fa004200f9004400f9004f03be0049
:10298c004f02be004f01be004f00be003600f900e2
:10299c00004006003600f800809fbe00829fbe00fb
:1029ac00849fbe00869fbe004400f8004200f800e1
:1029bc000000fa008720a900040037008084200062
:1029cc00430007000080fb00d0108800c11080007d
:1029dc000020200000806000e00f500004003a004e
:1029ec008084200057000700e04f5000f3ff3a00ae
:1029fc000080fa004200f9004400f9004f03be00c9
:102a0c004f02be004f01be004f00be003600f90061
:102a1c00004006000200fa00000f78009e007800cb
:102a2c000040eb0080c098009e0078000040eb0056
:102a3c0090c098000080fa00000006000400fa0024
:102a4c00000f7800214798001e00780000c090000d
:102a5c000080fb009e0078002e4190008270780070
:102a6c001e00780000c090000040e8009e00780036
:102a7c0080c098001e00780000c09000f043b200a7
:102a8c009e00780080c098001e00780080c09000e6
:102a9c001e00780010c0900080cf50000a003a0051
:102aac001e00780010c090000040e8009e007800e6
:102abc0090c098001e00780010c09000f043b20047
:102acc009e00780090c098000080fa00000006007c
:102adc000400fa00100798001e00900090c09000af
:102aec00114798001e00900080c090001e4090007e
:102afc0080cf50000e0032001e4090000080fb0082
:102b0c009e009000614f78001e4090000040e8004d
:102b1c00104798001e409000f043b20010479800f8
:102b2c001e0090009e40900011c0980002003700db
:102b3c000040eb00004f78001e4078000080fa0047
:102b4c00000006000200fa00000f78001e0078005a
:102b5c0080c090001e00780010c0900000c0500093
:102b6c00f043b2000080fa00000006000200fa00f8
:102b7c00000f78001e00780080c090001e007800c6
:102b8c0010c0900080cf500002003a000040eb00d3
:102b9c000100370010c0b3000080fa0000000600ee
:020000040000fa
:102bac008c0800005000000000000000dc08000051
:102bbc0002000000020000000000000000080000fd
:102bcc008c00000000000000de0800000200000085
:0c2bdc00020000000000000000000000eb
:020000040000fa
:0200000401f009
:04000000ebbb000056
:020000040000fa
:0200000401f009
:04000400f1ff000008
:020000040000fa
:0200000401f009
:04000800efff000006
:020000040000fa
:0200000401f009
:04000c00ffff0000f2
:020000040000fa
:0200000401f009
:04001000ffff0000ee
:020000040000fa
:0200000401f009
:04001400ffff0000ea
:020000040000fa
:0200000401f009
:04001800ffff0000e6
:00000001FF
